:020000040800F2
:1000000000000220E91C0008611C0008631C0008B5
:10001000651C0008671C0008691C0008000000003F
:100020000000000000000000000000006B1C000841
:100030006D1C0008000000006F1C0008711C000807
:10004000391D0008391D0008391D0008391D000838
:10005000391D0008391D0008391D0008391D000828
:10006000391D0008391D0008391D0008391D000818
:10007000391D0008391D0008391D0008391D000808
:10008000391D0008391D0008391D0008391D0008F8
:10009000391D0008391D0008391D0008391D0008E8
:1000A000391D0008391D0008391D0008391D0008D8
:1000B000391D0008391D0008391D0008391D0008C8
:1000C000391D0008391D0008391D0008391D0008B8
:1000D000391D0008391D0008391D0008391D0008A8
:1000E000391D0008391D0008391D0008391D000898
:1000F000391D0008391D0008391D0008391D000888
:10010000391D0008391D0008391D0008391D000877
:10011000391D0008391D0008391D0008391D000867
:10012000391D0008391D0008391D0008391D000857
:10013000391D00080000000000000000391D000803
:10014000391D0008391D0008391D0008391D000837
:10015000391D0008391D0008391D0008391D000827
:10016000391D0008391D0008391D0008391D000817
:10017000391D0008391D0008391D00080000000065
:1001800000000000391D0008000000000000000011
:10019000391D00080000000000000000391D0008A3
:1001A000000000000000000000000000391D0008F1
:1001B000391D0008391D0008391D0008391D0008C7
:0401C000391D0008DD
:1001D00010B5054C237833B9044B13B10448AFF381
:1001E00000800123237010BD70000020000000007B
:1001F000E825000808B5034B1BB103490348AFF3DA
:10020000008008BD0000000074000020E825000800
:1002100001F0FF01102A2BDB10F0070F08D010F8B7
:10022000013B013A8B422DD010F0070F42B3F6D1BB
:10023000F0B441EA012141EA014122F007047FF0D4
:1002400000070023F0E80256083C85EA010586EA2B
:10025000010685FA47F5A3FA87F586FA47F6A5FA67
:1002600087F68EB9EED1F0BC01F0FF0102F0070273
:1002700032B110F8013B013A83EA010313B1F8D11E
:100280000020704701387047002D06BF35460338FF
:10029000073815F0010F07D1013015F4807F02BF38
:1002A000013015F4C03F0130F0BC0138704700BF89
:1002B00053B94AB9002908BF00281CBF4FF0FF31CD
:1002C0004FF0FF3000F07AB9ADF1080C6DE904CEC3
:1002D00000F006F8DDF804E0DDE9022304B0704721
:1002E0002DE9F0478C460D460446089E002B51D15F
:1002F0008A4217466DD9B2FA82FEBEF1000F0BD0CA
:10030000CEF1200C01FA0EF520FA0CFC02FA0EF7E1
:100310004CEA050C00FA0EF44FEA174A250CBCFB18
:10032000FAF81FFA87F90AFB18CC45EA0C4508FBD6
:1003300009F3AB420AD9ED1908F1FF3280F02381AD
:10034000AB4240F22081A8F102083D44ED1AA4B26C
:10035000B5FBFAF00AFB105544EA054400FB09F925
:10036000A14509D9E41900F1FF3380F00A81A145C4
:1003700040F2078102383C44A4EB090440EA0840FB
:100380000021002E61D024FA0EF400233460736043
:10039000BDE8F0878B4207D9002E54D0002186E8B3
:1003A00021000846BDE8F087B3FA83F1002940F048
:1003B0008E80AB4202D3824200F2FA80841A65EB4F
:1003C00003050120AC46002E3FD086E81010BDE8A2
:1003D000F08712B90127B7FBF2F7B7FA87FEBEF133
:1003E000000F34D1EB1B3A0C1FFA87FC0121B3FB41
:1003F000F2F8250C02FB183345EA03450CFB08F321
:10040000AB4207D9ED1908F1FF3002D2AB4200F23E
:10041000D1808046ED1AA3B2B5FBF2F002FB105575
:1004200043EA05440CFB00FCA44507D9E41900F19C
:10043000FF3302D2A44500F2B8801846A4EB0C04A6
:1004400040EA08409DE731463046BDE8F087CEF1EE
:10045000200405FA0EF307FA0EF720FA04F83A0C16
:1004600025FA04F448EA0308B4FBF2F14FEA184510
:1004700002FB11441FFA87FC45EA044501FB0CF31B
:10048000AB4200FA0EF409D9ED1901F1FF3080F00A
:100490008A80AB4240F2878002393D44EB1A1FFA52
:1004A00088F5B3FBF2F002FB103345EA034500FB8D
:1004B0000CF3AB4207D9ED1900F1FF386FD2AB4214
:1004C0006DD902383D44EB1A40EA01418FE7C1F192
:1004D000200722FA07F88B4005FA01F448EA0303E3
:1004E00020FA07FE4FEA134CFD404EEA040EB5FB1E
:1004F000FCF94FEA1E440CFB19551FFA83F844EA35
:10050000054509FB08F4AC4202FA01F200FA01FACF
:1005100008D9ED1809F1FF3043D2AC4241D9A9F115
:1005200002091D442D1B1FFA8EFEB5FBFCF00CFBCF
:1005300010554EEA054400FB08F8A04507D9E41819
:1005400000F1FF3529D2A04527D902381C4440EAE2
:100550000940A4EB0804A0FB02894C45C6464D4661
:1005600015D312D056B1BAEB0E0364EB050404FAAE
:1005700007F7CB401F43CC40376074600021BDE8D3
:10058000F0871846F8E69046E0E6C245EAD2B8EBB6
:10059000020E69EB03050138E4E72846D7E7404639
:1005A00091E78146BEE7014678E702383C4445E7DB
:1005B000084608E7A8F102083D442BE7704700BF52
:1005C00038B50E4A0E4B054618784FF47A73B3FBD4
:1005D000F0F31068B0FBF3F000F0A2F8044658B94D
:1005E0000F2D09D8024629464FF0FF3000F056F88B
:1005F000044B20461D6038BD012038BD0800002096
:10060000000000200400002008B50B4B1A6842F4DB
:1006100000721A601A6842F480621A601A6842F422
:1006200080721A60032000F01BF80020FFF7C8FF5B
:1006300001F03EFA002008BD003C0240034A044B92
:1006400011681B780B441360704700BF98000020AE
:1006500000000020014B1868704700BF9800002080
:10066000C31E042B10B5044603D9A221094801F08A
:100670001DFA094AD36823F4E0631B041B0C43F002
:10068000BF63240243F4003304F4E0641C43D460E9
:1006900010BD00BF0026000800ED00E00F2A70B575
:1006A00004460E46154603D9BA211A4801F0FEF950
:1006B0000F2E03D9BB21174801F0F8F9164BD96862
:1006C000C1F30221C1F107030A1D042B28BF042333
:1006D0000120062A8CBF0339002100FA03F2013AF7
:1006E0008840324001388A400540002C42EA050229
:1006F0004FEA0212AFBF04F1604404F00F04074B4D
:10070000D2B2A5BF04F56144D2B21A5584F80023D1
:1007100070BD00BF0026000800ED00E014ED00E011
:100720000138B0F1807F0AD2064B074A5860F021A9
:1007300082F823100020072298601A607047012079
:10074000704700BF10E000E000ED00E0042810B5A5
:10075000084C0AD020B140F2D911074801F0A6F99F
:10076000236823F00403236010BD236843F00403CF
:10077000F9E700BF10E000E000260008704708B568
:10078000FFF7FCFF08BD0000974B98422DE9F74F9B
:1007900004460D461FD003F5806398421BD003F535
:1007A0008063984217D003F58063984213D003F515
:1007B000806398420FD003F5806398420BD003F515
:1007C0008063984207D003F58063984203D0C32129
:1007D000864801F06BF92B689AB212B11B0C1B040E
:1007E0001BB1C421814801F061F96B68032B17D953
:1007F000A3F11102012A13D97D4923F400128A4280
:100800000ED001F580118B420AD0A1F570218A42E9
:1008100006D0784A934203D0C521744801F046F9C6
:10082000AB68022B03D9C621704801F03FF9DFF80D
:10083000CC81002601232A6803FA06F707EA020999
:100840004F4540F0C0806A6822F01002022A18D199
:100850002A690D2A05D90F2A03D0D721634801F050
:1008600025F9F10804EB810106F0070290000B6AFC
:100870000F22824023EA020E2A69824042EA0E02D7
:100880000A626A6820684FEA460B4FF0030A0AFAC8
:100890000BFA02F003016FEA0A0A22F0100200EAE2
:1008A0000A0001FA0BF1013A0143012A216017D82D
:1008B000EA68032A03D9EA214C4801F0F7F8A16855
:1008C000EA686B680AEA010102FA0BF20A43A260C5
:1008D0006268C3F3001322EA0702B3401343636064
:1008E000E36868680AEA030AAB6803FA0BF343EAB1
:1008F0000A03E360C30066D53F4A00230193516CAD
:1009000041F480415164526C26F0030101F18041B1
:1009100002F4804201F59C31019206F0030E019A27
:10092000D1F808C04FEA8E0E0F2202FA0EF22CEA1E
:10093000020C2D4A94421BD003F1804303F501338E
:100940009C4247D003F580639C4245D003F5806309
:100950009C4243D003F580639C4241D003F5806301
:100960009C423FD003F580639C4214BF07230623BB
:1009700003FA0EF343EA0C038B60D8F800206FEA09
:100980000901C70354BF0A4049EA0202C8F800201F
:10099000D8F80420830354BF0A4049EA0202C8F889
:1009A0000420D8F80820C70254BF0A4049EA0202CE
:1009B000C8F80820D8F80C30820254BF0B4049EA2E
:1009C0000303C8F80C300136102E7FF433AF03B0A8
:1009D000BDE8F08F0123CBE70223C9E70323C7E774
:1009E0000423C5E70523C3E7000002403B260008B7
:1009F000000011100000221000380240003C0140AD
:100A000070B5054616460C4621B940F2AF110848AC
:100A100001F04CF8012E06D94FF4D871044801F0CA
:100A200045F8AC6170BD002EFBD12404F9E700BF8E
:100A30003B26000870B50446002800F0C18003681A
:100A4000604A93420CD002F58062934208D002F5CE
:100A50008062934204D04FF4B7715B4801F026F8EE
:100A600063685A4A013B934204D940F26F115648D9
:100A700001F01CF8A36833F4804304D04FF4B8713C
:100A8000514801F013F8E36823F47F7323F0030364
:100A900023B140F271114C4801F008F8236923F4A6
:100AA0000043B3F5804F04D04FF4B971464800F0CD
:100AB000FDFF6369012B04D940F27311424800F035
:100AC000F5FFA36933F0FE0304D04FF4BA713E483A
:100AD00000F0ECFFE36933F0400304D040F27511FD
:100AE000394800F0E3FF236A33F0800304D04FF469
:100AF000BB71354800F0DAFF94F83D3003F0FF0297
:100B000023B984F83C20204601F01AF82268304EC0
:100B1000304D242384F83D30136823F00103136023
:100B200000F054F963682268B0FBF5F5B34284BF66
:100B30004FF496716943556091BF691C4FF47A7503
:100B4000B1FBF5F10131B342116221D85B00B0FB7A
:100B5000F3F0C0F30B03032B98BF0420216AE36971
:100B6000D0610B431360E16823690B439360A16973
:100B700063690B43D360136843F0010313600020E3
:100B80002023206484F83D30206384F83E0070BD4B
:100B9000A16849B903EB4303B0FBF3F0C0F30B03C7
:100BA00063B140F40040D9E719214B43B0FBF3F0A7
:100BB000C0F30B0313B140F44040CFE70120CDE771
:100BC000012070BD00540040742600087F1A060002
:100BD000A086010040420F002DE9F0410D46044679
:100BE00010B90120BDE8F0810368013B0E2B04D948
:100BF0004FF414716D4800F059FF0F2D04D940F2E5
:100C000051216A4800F052FF694B1A6802F00F0246
:100C100095423DD82268960742D42368D9076CD400
:100C2000634B1A6802F00F029542C0F09C80236863
:100C30005A0700F1A18023681B0718D5236933F4F4
:100C400080520CD023F40062B2F5A05F07D0B3F558
:100C5000C05F04D04FF43071544800F027FF554A6C
:100C60002169936823F4604343EAC103936000F071
:100C7000CDF8504B504A9B68C3F30313D35CD84064
:100C80004E4B18600020FFF79BFC0020BDE8F08170
:100C9000EAB21A701B6803F00F039D42A1D1B9E7B5
:100CA000444B12F0040F1EBF996841F4E051996063
:100CB000100742BF9A6842F460429A60A36833F01A
:100CC000800212D023F02002902A0ED023F040029E
:100CD000A02A0AD023F01002C02A06D0F02B04D09C
:100CE0004FF41D71314800F0E1FE324AA16893686B
:100CF00023F0F0030B4393608FE76368032B04D961
:100D000040F27B21294800F0D1FE6268294B012A7C
:100D10001FD11B6813F4003F3FF463AF254EB36847
:100D200023F003031343B360FFF794FC41F28838C8
:100D30000746B368626803F00C03B3EB820F3FF41D
:100D40006FAFFFF787FCC01B4045F2D90320BDE819
:100D5000F081911E01291B6802D813F0007FDBE7A8
:100D600013F0020FD8E7EAB21A701B6803F00F0302
:100D70009D427FF436AF5AE7E36833F480520CD0DB
:100D800023F40062B2F5A05F07D0B3F5C05F04D0D2
:100D900040F2B921054800F089FE064AE1689368EF
:100DA00023F4E0530B43936045E700BFAC260008F3
:100DB000003C0240003802405E2700080800002086
:100DC000014B1868704700BF08000020044B054A1B
:100DD0009B68C3F38223D35C034A1068D8407047F2
:100DE000003802406E27000808000020044B054A26
:100DF0009B68C3F34233D35C034A1068D840704702
:100E0000003802406E27000808000020204908B57D
:100E10008B6803F00C03082B07D00C2B20D01D4A45
:100E20001D48042B18BF104608BD4A684B68496826
:100E300013F4800314BF18481648C1F3881118BF73
:100E4000002302F03F02A1FB0001FFF731FA104B33
:100E50005B68C3F3014301335B00B0FBF3F008BDF3
:100E60004A684B68496813F4800314BF0A4809486C
:100E7000C1F3881118BF002302F03F02A1FB00015B
:100E8000FFF716FA024B5B68C3F30273E5E700BF96
:100E9000003802400024F40000127A0003680F2B8F
:100EA0002DE9F341044604D94FF45161A34800F001
:100EB000FDFD2368DE0718D423689D077BD42368D3
:100EC000190700F1D68023685A0700F1FC80A36956
:100ED000022B04D940F60361984800F0E7FDA269AF
:100EE000002A40F06A8100202AE0636833F48032EF
:100EF00007D0B3F5A02F04D040F615518F4800F06D
:100F0000D5FD8F4B9A6802F00C02042A10D09A6823
:100F100002F00C02082A02D15B68580208D4884B00
:100F20009A6802F00C020C2A0DD15A6851020AD5B7
:100F3000834B1B689A03BFD56368002BBCD101208B
:100F400002B0BDE8F0816268B2F5803F11D11A6845
:100F500042F480321A60FFF77DFB794D06462B681C
:100F60009B03A9D4FFF776FB801B6428F7D90320E5
:100F7000E6E7734DB2F5A02F2B6807D143F4802329
:100F80002B602B6843F480332B60E4E723F4803339
:100F90002B602B6823F480232B60002ADBD1FFF722
:100FA00059FB06462B689F0386D5FFF753FB801B32
:100FB0006428F7D9DBE7E368012B04D940F64D51EB
:100FC0005E4800F073FD23691F2B04D940F64E5193
:100FD0005A4800F06BFD5A4B9A6812F00C0F10D073
:100FE0009A6802F00C02082A02D15B68580208D500
:100FF000534A936803F00C030C2B11D15368590228
:101000000ED44F4B1A68920702D5E268012A96D196
:101010001A68216922F0F80242EAC1021A604EE71A
:10102000E268484BB2B101221A60FFF713FB444D4E
:1010300006462B689F0707D52B68226923F0F80323
:1010400043EAC2032B603AE7FFF704FB801B022848
:10105000EFD98CE71A60FFF7FDFA394D06462B6889
:1010600098077FF52CAFFFF7F5FA801B0228F6D919
:101070007DE76369012B04D940F694512F4800F0B5
:1010800015FD6269304B7AB101221A60FFF7E2FA6E
:101090002B4D06466B6F9B073FF515AFFFF7DAFA4E
:1010A000801B0228F6D962E71A60FFF7D3FA244DB5
:1010B00006466B6F9F077FF506AFFFF7CBFA801BE5
:1010C0000228F6D953E7A368012B06D9052B04D0D3
:1010D0004FF45C61194800F0E9FC194B1A6C12F0EE
:1010E000805228D101921A6C42F080521A641B6C13
:1010F00003F080530193019B0126144D2B68D80502
:1011000026D5A3680E4D012B32D12B6F43F001037E
:101110002B67FFF79FFA0A4D074641F288382B6F7D
:101120009A0744D5002E3FF4D2AE054A136C23F043
:1011300080531364CBE60026DFE700BFE4260008F7
:101140000038024000004742800E474200700040D5
:101150002B6843F480732B60FFF77CFA07462B68FB
:10116000D905CED4FFF776FAC01B0228F7D9FEE6E0
:10117000052B04D12B6F43F004032B67C5E72A6FBF
:1011800022F001022A672A6F22F004022A67002B4C
:10119000BFD1FFF75FFA41F2883807462B6F9B07F4
:1011A000C0D5FFF757FAC01B4045F7D9DFE6FFF778
:1011B00051FAC01B4045B2D9D9E6424EB36803F09C
:1011C0000C03082B3FF4BBAE022A3F4D6AD1E36902
:1011D00033F4800304D040F60C613C4800F066FC18
:1011E000236A3F2B04D940F60D61384800F05EFCBD
:1011F000636A323BB3F5BF7F04D940F60E613348D2
:1012000000F054FCA26A082A04D84FF4AA73D34011
:10121000D80704D440F60F612C4800F047FCE36A7D
:10122000023B0D2B04D94FF46161284800F03EFCCD
:10123000236B023B052B04D940F61161234800F0D3
:1012400035FC00232B60FFF705FA1E4E0746336876
:10125000990121D4226AE3691343626A43EA821343
:10126000E26A43EA0263226B43EA0273A26A154C04
:101270005208013A43EA0243736001232B60FFF7EF
:10128000E9F9054623689A013FF52DAEFFF7E2F92B
:10129000401B0228F6D96AE6FFF7DCF9C01B0228DA
:1012A000D5D964E600232B60FFF7D4F904463368F0
:1012B0009B017FF518AEFFF7CDF9001B0228F6D988
:1012C00055E600BF0038024060004742E4260008AF
:1012D00042689E4B9A422DE9F047044604D940F6F5
:1012E00085119B4800F0E2FBE36833F4005304D01F
:1012F00040F68611964800F0D9FB236933F48062EA
:1013000007D0B3F5C06F04D040F68711904800F0C5
:10131000CDFB63694FF6F372134200D123B940F657
:1013200088118B4800F0C2FB2668E26833692069A7
:10133000E16923F4405313433361A368F268034324
:10134000606922F41642034322F00C020B4313435C
:10135000F3607369A26923F440731343B1F5004F3E
:1013600073617C4B7CD19E4203D003F580639E4227
:1013700044D1FFF73BFD192505FB00F360684FF0F2
:1013800064094000B3FBF0F3B3FBF9F34FEA031831
:10139000FFF72CFD636868435B00B0FBF3F7FFF7D2
:1013A00025FD636868435B00B0FBF3F3B3FBF9F31F
:1013B00009FB1373DB003233B3FBF9F35B0003F477
:1013C000F877FFF713FD626868435200B0FBF2FA4A
:1013D000FFF70CFD636868435B00B0FBF3F3B3FBFE
:1013E000F9F309FB13A3DB003233B3FBF9F303F08A
:1013F000070343443B44B360BDE8F087FFF7E6FCD6
:10140000192505FB00F360684FF064094000B3FB49
:10141000F0F3B3FBF9F34FEA0318FFF7D7FC636867
:1014200068435B00B0FBF3F7FFF7D0FC63686843E9
:101430005B00B0FBF3F3B3FBF9F309FB1373DB00C1
:101440003233B3FBF9F35B0003F4F877FFF7BEFC2C
:10145000626868435200B0FBF2FAFFF7B7FCB9E7E5
:101460009E4202D03C4B9E4240D1FFF7BFFC6768D2
:1014700019254FF0640905FB00F3BF00B3FBF7F338
:10148000B3FBF9F31F01FFF7B1FC636868439B00EE
:10149000B0FBF3F8FFF7AAFC636868439B00B0FB5E
:1014A000F3F3B3FBF9F309FB13831B013233B3FBF3
:1014B000F9F303F0F008FFF799FC626868439200C3
:1014C000B0FBF2FAFFF792FC636868439B00B0FB45
:1014D000F3F3B3FBF9F309FB13A31B013233B3FBA3
:1014E000F9F303F00F0343EA080383E7FFF76EFC09
:1014F000676819254FF0640905FB00F3BF00B3FBD3
:10150000F7F3B3FBF9F31F01FFF760FC636868436F
:101510009B00B0FBF3F8FFF759FC636868439B003E
:10152000B0FBF3F3B3FBF9F309FB13831B01323375
:10153000B3FBF9F303F0F008FFF748FC6268684377
:101540009200B0FBF2FAFFF741FCBDE7A037A00024
:101550001F2700080010014000140140F8B50446A0
:101560000E4617461D4621680B6836EA030301D173
:101570000020F8BD6B1CF7D095B92368DA6822F417
:10158000D072DA605A6922F001025A61202384F88D
:10159000393084F83A30002384F838300320F8BD1D
:1015A000FFF758F8C01B8542DDD2E6E710B50446C8
:1015B000002874D0816903683A4A002957D09342C1
:1015C00010D0A2F54C4293420CD002F580629342B7
:1015D00008D002F54C42934204D04FF48071324857
:1015E00000F064FAA36933F4407304D040F20111AF
:1015F0002D4800F05BFAA36833F4805304D040F226
:101600000711294800F052FAE36933F4004304D08B
:101610004FF48471244800F049FA94F8393003F00B
:10162000FF0223B984F83820204600F0B3FA22687C
:10163000242384F83930D36823F40053D360204640
:10164000FFF746FE23681A6922F490421A615A692C
:1016500022F02A025A61DA6842F40052DA6000206D
:101660002023E06384F8393084F83A3010BD934287
:10167000C1D00E4A9342BED002F580629342BAD0E6
:1016800002F580629342B6D002F580629342B2D0F6
:1016900002F544429342AED040F20511A8E7012082
:1016A00010BD00BF001001401F270008004400408B
:1016B0002DE9F0411F4690F83930202B04460D46A5
:1016C00090464FD100294AD0002A48D090F83830AF
:1016D000012B47D0012380F838300023C363212336
:1016E00080F83930FEF7B6FFA4F824800646A4F847
:1016F0002680E38C9BB26BB93B46324640212046A4
:10170000FFF72CFFB0B9202384F8393084F8380073
:10171000BDE8F081E38C013B9BB2E384A368B3F5A1
:10172000805F32463B464FF0800120460ED1FFF7E6
:1017300015FF10B10320BDE8F0812B882268C3F3A8
:1017400008035360236943B90235D2E7FFF706FF68
:101750000028EFD123682A785A600135C9E70120B3
:10176000BDE8F0810220BDE8F0812DE9F0411F467F
:1017700090F83A30202B04460D46904652D100296D
:101780004DD0002A4BD090F83830012B4AD001239D
:1017900080F838300023C363222380F83A30FEF704
:1017A00059FFA4F82C800646A4F82E80E08D80B264
:1017B00030B9202384F83A3084F83800BDE8F0814D
:1017C000E38D013B9BB2E385A368B3F5805F3246AE
:1017D0003B464FF02001204612D1FFF7BFFE10B16B
:1017E0000320BDE8F081236822695B6822B9C3F356
:1017F000080325F8023BD9E7DBB225F8013BD5E722
:10180000FFF7ACFE0028EBD1236821695B686A1CF6
:1018100011B92B701546C9E703F07F03F9E70120E2
:10182000BDE8F0810220BDE8F081000030B595B040
:10183000294B002100911A6C42F080521A641B6CF3
:10184000264A03F080530093009B0191136823F410
:10185000404343F480431360136803F4404301930F
:10186000019B012307934FF4803308934FF48003C7
:101870000E93082302240F9304254FF4A87307A89E
:101880000D941093119512941394FFF707FB00B178
:10189000FEE70F23029304904FF4805306902146F5
:1018A00002A803940593FFF797F9044600B1FEE7F9
:1018B000FFF786FA4FF47A73B0FBF3F0FEF730FFD0
:1018C0002846FEF743FF224621464FF0FF30FEF741
:1018D000E5FE15B030BD00BF00380240007000408A
:1018E0000FB480B582B000AF07F11003ADF5007DF5
:1018F00053F8042B7B604FF40071684600F06EFAD9
:1019000040F2FF12B0F5007F28BF104682B24FF6BA
:10191000FF7369460448FFF7CBFE0837BD46BDE8B4
:10192000804004B0704700BF7001002000B58BB04C
:101930000024FEF769FEFFF779FF4D4B01941A6B07
:101940004C4842F004021A631A6B02F0040201923E
:10195000019A02941A6B42F080021A631A6B02F029
:1019600080020292029A03941A6B42F001021A63F7
:101970001A6B02F001020392039A04941A6B42F06C
:1019800002021A631B6B03F0020322460493202118
:10199000049BFFF735F84FF40053059305A9364B28
:1019A000364806930794FEF7EFFE2023059331484F
:1019B0000794012305A906930894FEF7E5FE304835
:1019C000304B84604FF4E13580E828000C25C4607A
:1019D000046145618461C461FFF7E8FD00B1FEE781
:1019E000294B2A4A2A49986083E80600D8604FF4B8
:1019F000804258619861D861186218461A61FFF7F1
:101A000019F800B1FEE7234C234BA0604FF41656A3
:101A1000E0602061A061E061204684E848006561E3
:101A2000FFF7C4FD00B1FEE71C4B1D4A9860D8606B
:101A300018619861D861184683E844005D61FFF73A
:101A4000B5FD68B9174D184E4FF47A73012205A9F8
:101A50002046FFF78AFE20B12846FFF741FFF3E753
:101A6000FEE79DF814103046FFF73AFFECE700BFA1
:101A7000003802400000024000002110000802402F
:101A800070010020004400409C000020A08601005E
:101A900000540040F0000020001001403001002000
:101AA000004C00405C2700085827000870470000E1
:101AB00013B5224B002400945A6C42F480425A64BD
:101AC0005A6C02F480420092009A01941A6C42F01F
:101AD00080521A641B6C03F0805301930720019B12
:101AE000FEF7BEFD224621466FF00B00FEF7D6FD45
:101AF000224621466FF00A00FEF7D0FD224621461D
:101B00006FF00900FEF7CAFD224621466FF004007F
:101B1000FEF7C4FD224621466FF00300FEF7BEFD2E
:101B2000224621466FF00100FEF7B8FD224621460D
:101B30004FF0FF30FEF7B2FD02B010BD003802409A
:101B40007FB50268104B9A421BD14FF4407301934A
:101B500012230293012303930323049304230DEB25
:101B600003010A480593FEF70FFE00230093084B7C
:101B70001A6C42F400121A641B6C03F400130093F5
:101B8000009B07B05DF804FB0054004000040240D5
:101B900000380240F0B503682B4A934289B025D142
:101BA00000230093294B2A481A6C42F400221A643D
:101BB0001B6C03F40023022400930127032608254D
:101BC00003A9009B03940494059706960795FEF7D6
:101BD000DBFD4FF480631F4803930494059706963A
:101BE000079503A9FEF7D0FD09B0F0BD1A4A93424C
:101BF00019D100230193154B5A6C42F010025A641C
:101C00005B6C03F010030193019B4FF4C0630393DB
:101C100002230493012305930323069307230793C9
:101C200003A90B48DEE70D4A9342DDD1002302935E
:101C3000064B1A6C42F400321A641B6C03F4003336
:101C40000293029B0C23E2E7004C00400038024064
:101C50000000024000080240001001400044004023
:101C60007047FEE7FEE7FEE7FEE770477047704704
:101C700008B5FEF7E3FCBDE80840FEF780BD0000B4
:101C8000044B1968024609B90349196018680244EF
:101C90001A6070478C000020B40100200F49D1F871
:101CA000883043F47003C1F888300D4B1A68002067
:101CB00042F001021A6098601A6822F0847222F4DD
:101CC00080321A60074A5A601A6822F480221A6029
:101CD000D8604FF000638B60704700BF00ED00E0FC
:101CE0000038024010300024DFF834D0002103E037
:101CF0000C4B5B58435004310B480C4B42189A4232
:101D0000F6D30B4A02E0002342F8043B094B9A4207
:101D1000F9D3FFF7C3FF00F011F8FFF707FE704794
:101D200000000220BC2700080000002070000020F6
:101D300070000020B4010020FEE7000070B50D4ED9
:101D40000D4CA41BA4100025A54209D10B4E0C4C30
:101D500000F04AFCA41BA4100025A54205D170BDCB
:101D600056F8253098470135EEE756F82530984764
:101D70000135F2E7B4270008B4270008B4270008AB
:101D8000B827000830B5141E05469BB0184605DA82
:101D90008B232B604FF0FF301BB030BD4FF402732C
:101DA000ADF80C3014BF04F1FF33234602930593C2
:101DB0004FF6FF7300910491ADF80E3002461E9B62
:101DC0006946284600F020F9431CBCBF8B232B60DA
:101DD000002CE1D0009B00221A70DDE707B50093CC
:101DE00013460A46014603480068FFF7CBFF03B0DD
:101DF0005DF804FB0C00002038B50546002945D0ED
:101E000051F8043C0C1F002BB8BFE41800F0BBFBDA
:101E10001F4A1368104633B9636014602846BDE852
:101E2000384000F0B1BBA3420CD92168621893423C
:101E300004BF1A685B68636004BF521822600460C4
:101E4000ECE713465A680AB1A242FAD91968581841
:101E5000A0420BD120680144581882421960DDD19C
:101E6000106852685A6001441960D7E702D90C2300
:101E70002B60D3E7206821188A4204BF116852689A
:101E8000626004BF091821605C60C7E738BD00BF0D
:101E90009000002070B5CD1C25F0030508350C2DF1
:101EA00038BF0C25002D064601DBA94203D90C23BF
:101EB0003360002070BD00F066FB234A14682146A1
:101EC00091B9224C23681BB9304600F027FB2060F3
:101ED0002946304600F022FB431C26D10C233360F8
:101EE000304600F051FBE4E70B685B1B1AD40B2B68
:101EF0000FD90B60CD50CC18304600F045FB04F1F3
:101F00000B00231D20F00700C31A1BD05A42E250D9
:101F100070BD8C420DBF63684B686360136018BF6F
:101F20000C46E9E70C464968CAE7C41C24F00304E0
:101F3000A04205D0211A304600F0F0FA0130CDD091
:101F40002560D9E770BD00BF9000002094000020FC
:101F50002DE9F0478E689E4282460C46914698468F
:101F600035D88A8912F4906F31D0256809696F1AC3
:101F70006569022305EB450595FBF3F508F10103BF
:101F80003B449D4238BF1D46530531D52946FFF7D6
:101F900081FF064650B90C23CAF80030A38943F0EC
:101FA0004003A3814FF0FF30BDE8F0873A46216936
:101FB00000F0C4FAA38923F4906343F08003A38163
:101FC000266165613E44ED1B2660A5604646464598
:101FD00028BF464632464946206800F0BAFAA36850
:101FE0009B1BA36023681E4426600020BDE8F08789
:101FF0002A4600F0CAFA06460028E1D12169504677
:10200000FFF7FAFEC7E700002DE9F04F9DB08046CC
:1020100003938B891C060D4616460FD50B696BB9C9
:102020004021FFF737FF2860286128B90C23C8F842
:1020300000304FF0FF30C5E040236B61002309936F
:1020400020238DF8293030238DF82A304FF0010BF2
:1020500037463C4614F8013B002B3CD1B7EB060A4F
:102060000BD05346324629464046FFF771FF0130F8
:1020700000F0A380099B534409933B78002B00F0A8
:102080009C8000234FF0FF32049307930592069340
:102090008DF853301A93052221785048FEF7B8F88E
:1020A000671C049BD8B9D90644BF20228DF8532061
:1020B0001A0744BF2B228DF8532022782A2A16D0E3
:1020C000079A00210A20274601343B78303B092B30
:1020D00051D9C9B111E0252BC0D02746B9E73F4AF5
:1020E000801A0BFA00F0184304903C46D3E7039A99
:1020F000111D12680391002A01DB079204E052428D
:1021000043F00203079204933B782E2B0ED17B7889
:102110002A2B07F1010132D1039B1A1D1B68039280
:10212000002BB8BF4FF0FF33023705932C4C3978A2
:1021300003222046FEF76CF838B14023001B03FA57
:1021400000F0049B034304930137397825488DF848
:10215000281006227E1CFEF75BF8002835D0224BA3
:10216000FBB9039B073323F0070308330393099B51
:102170004B4409936CE700FB02320121A3E70023E3
:10218000059318460A240F4601313A78303A092A55
:1021900003D9002BCAD00590C8E704FB0020012317
:1021A000F1E703AB00932A46104B04A94046AFF376
:1021B0000080B0F1FF3F8146D9D1AB895B063FF586
:1021C00038AF09981DB0BDE8F08F03AB00932A46E5
:1021D000064B04A9404600F081F8EAE7762700089C
:1021E0007C2700088027000800000000511F00081D
:1021F0002DE9F04791461F468A680B69DDF820807B
:102200009342B8BF1346C9F8003091F84320064600
:102210000C4612B10133C9F800302368990642BF59
:10222000D9F800300233C9F80030256815F00605EA
:1022300007D104F1190AE368D9F800209B1A9D42DE
:1022400029DB94F843302268003318BF012392063B
:102250002ED404F1430239463046C047013021D024
:102260002368E568D9F8002003F00603042B08BFB3
:10227000AD1AA36822690CBF25EAE57500259342D3
:10228000C4BF9B1AED184FF000091A344D451BD1FD
:102290000020BDE8F0870123524639463046C0474A
:1022A000013003D14FF0FF30BDE8F0870135C2E7C0
:1022B000E1185A1C302081F84300224494F845105C
:1022C00082F843100233C4E70123224639463046E0
:1022D000C0470130E6D009F10109D7E72DE9F04305
:1022E00017460A7E85B06E2A984606460C460C9B19
:1022F00001F1430E00F0BC801AD8632A2ED00AD810
:10230000002A00F0C880582A00F08A8004F14205B3
:1023100084F842202AE0642A01D0692AF6D1216893
:102320001A6811F0800F23D0111D1960136827E07F
:10233000732A00F0B48008D86F2A2AD0702AE5D119
:102340000A6842F020020A6003E0752A21D0782A48
:10235000DCD1782284F845206E4964E01A6801F1E6
:102360004205111D1960136884F842300123A3E06F
:1023700011F0400F02F104011960D7D0B2F900301A
:10238000002B03DA2D225B4284F8432062490A22A3
:1023900017E02068196810F0800F03D0081D18603E
:1023A0000B6806E010F0400F01F104001860F7D050
:1023B0000B8859496F2A14BF0A220822002084F88A
:1023C00043006568A560002DC0F29C80206820F065
:1023D00004002060002B3FD1002D40F09580754611
:1023E000082A0BD12368DA0708D5236962689A4264
:1023F000DEBF302305F8013C05F1FF35AEEB0503E8
:102400002361CDF800803B4603AA21463046FFF702
:10241000EFFE013055D14FF0FF3005B0BDE8F0833D
:1024200081F845203C492268186812F0800F00F1BD
:1024300004051D6001D0036802E05506FBD5038842
:10244000D00744BF42F0200222601BB9226822F06C
:10245000200222601022B1E77546B3FBF2F002FBC6
:102460001033CB5C05F8013D03460028F5D1B7E7F2
:1024700008681A68496910F0800F04D0101D1860B0
:102480001368196007E010F0400F02F104001860B3
:102490001368F6D01980002323617546B1E71A68E6
:1024A000111D19601568626800212846FDF7B0FE0D
:1024B00008B1401B606063682361002384F84330E7
:1024C0009FE723692A4639463046C0470130A2D0EB
:1024D00023689B0707D5002504F11909E368039ACF
:1024E0009B1A9D4205DBE068039B9842B8BF1846E3
:1024F00093E701234A4639463046C04701308AD027
:102500000135EBE7002BA7D10B7884F8423004F1BA
:10251000420565E7982700088727000838B5064C6C
:102520000023054608462360FFF7AAFB431C02D19F
:10253000236803B12B6038BDB001002010B5431EE5
:102540000A44914200D110BD11F8014B03F8014F2C
:10255000F7E7884210B501EB020303D8421E994207
:102560000CD110BD9842F9D28118D21AD34200D1B1
:1025700010BD13F8014D01F8014DF7E711F8014BBB
:1025800002F8014FEBE770477047F8B5074614466D
:102590000E4621B91146BDE8F840FFF77BBC22B9D1
:1025A000FFF72AFC25462846F8BD00F014F88442BF
:1025B0000FD921463846FFF76DFC05460028F2D0BA
:1025C00031462246FFF7BAFF31463846FFF714FC82
:1025D000E9E73546E7E751F8040C0028A0F10400CC
:1025E000BCBF0B58C0187047F8B500BFF8BC08BC9A
:1025F0009E467047F8B500BFF8BC08BC9E467047C1
:102600002E2E2F447269766572732F53544D3332D8
:10261000463478785F48414C5F4472697665722F22
:102620005372632F73746D3332663478785F6861E8
:102630006C5F636F727465782E63002E2E2F447268
:1026400069766572732F53544D3332463478785F10
:1026500048414C5F4472697665722F5372632F73E1
:10266000746D3332663478785F68616C5F67706967
:102670006F2E63002E2E2F447269766572732F536E
:10268000544D3332463478785F48414C5F44726928
:102690007665722F5372632F73746D33326634789C
:1026A000785F68616C5F6932632E63002E2E2F4461
:1026B0007269766572732F53544D3332463478788D
:1026C0005F48414C5F4472697665722F5372632F85
:1026D00073746D3332663478785F68616C5F7263EF
:1026E000632E63002E2E2F447269766572732F530A
:1026F000544D3332463478785F48414C5F447269B8
:102700007665722F5372632F73746D33326634782B
:10271000785F68616C5F7263635F65782E63002E1B
:102720002E2F447269766572732F53544D3332469F
:102730003478785F48414C5F4472697665722F53F4
:1027400072632F73746D3332663478785F68616CAE
:102750005F756172742E63004F2563002A000000CC
:102760000000000000000102030406070809000041
:10277000000001020304232D302B2000686C4C0064
:102780006566674546470030313233343536373871
:1027900039414243444546003031323334353637CF
:0C27A00038396162636465660000000067
:0827AC0034DBFF7F0100000097
:0427B400F501000823
:0427B800D101000843
:1027BC0001000000100000000024F40010000020B4
:1027CC0000000000000000000000000000000000FD
:1027DC0000000000000000000000000000000000ED
:1027EC0000000000000000000000000000000000DD
:1027FC0000000000000000000000000000000000CD
:10280C0000000000000000000000000000000000BC
:10281C0000000000000000000000000000000000AC
:0400000508001CE9EA
:00000001FF
