:020000040800F2
:1000000000000220A5290008112900081329000872
:100010001529000817290008192900080000000008
:100020000000000000000000000000001B29000884
:100030001D290008000000001F29000821290008D0
:10004000F5290008F5290008F5290008F529000818
:10005000F5290008F5290008F5290008F529000808
:10006000F5290008F5290008F5290008F5290008F8
:10007000F5290008F5290008F5290008F5290008E8
:10008000F5290008F5290008F5290008F5290008D8
:10009000F5290008F5290008F5290008F5290008C8
:1000A000F5290008F5290008F5290008F5290008B8
:1000B000F5290008F5290008F5290008F5290008A8
:1000C000F5290008F5290008F5290008F529000898
:1000D000F529000831290008F5290008F52900084C
:1000E000F5290008F5290008F5290008F529000878
:1000F000F5290008F5290008F5290008F529000868
:10010000F5290008F5290008F5290008F529000857
:10011000F5290008F5290008F5290008F529000847
:10012000F5290008F5290008F5290008F529000837
:10013000F52900080000000000000000F529000873
:10014000F5290008F5290008F5290008F529000817
:10015000F5290008F5290008F5290008F529000807
:10016000F5290008F5290008F5290008F5290008F7
:10017000F5290008F5290008F5290008000000000D
:1001800000000000F5290008000000000000000049
:10019000F52900080000000000000000F529000813
:1001A000000000000000000000000000F529000829
:1001B000F5290008F5290008F5290008F5290008A7
:0401C000F529000815
:1001D00010B5054C237833B9044B13B10448AFF381
:1001E00000800123237010BD70000020000000007B
:1001F000A432000808B5034B1BB103490348AFF311
:10020000008008BD0000000074000020A432000837
:1002100001F0FF01102A2BDB10F0070F08D010F8B7
:10022000013B013A8B422DD010F0070F42B3F6D1BB
:10023000F0B441EA012141EA014122F007047FF0D4
:1002400000070023F0E80256083C85EA010586EA2B
:10025000010685FA47F5A3FA87F586FA47F6A5FA67
:1002600087F68EB9EED1F0BC01F0FF0102F0070273
:1002700032B110F8013B013A83EA010313B1F8D11E
:100280000020704701387047002D06BF35460338FF
:10029000073815F0010F07D1013015F4807F02BF38
:1002A000013015F4C03F0130F0BC0138704700BF89
:1002B00053B94AB9002908BF00281CBF4FF0FF31CD
:1002C0004FF0FF3000F07AB9ADF1080C6DE904CEC3
:1002D00000F006F8DDF804E0DDE9022304B0704721
:1002E0002DE9F0478C460D460446089E002B51D15F
:1002F0008A4217466DD9B2FA82FEBEF1000F0BD0CA
:10030000CEF1200C01FA0EF520FA0CFC02FA0EF7E1
:100310004CEA050C00FA0EF44FEA174A250CBCFB18
:10032000FAF81FFA87F90AFB18CC45EA0C4508FBD6
:1003300009F3AB420AD9ED1908F1FF3280F02381AD
:10034000AB4240F22081A8F102083D44ED1AA4B26C
:10035000B5FBFAF00AFB105544EA054400FB09F925
:10036000A14509D9E41900F1FF3380F00A81A145C4
:1003700040F2078102383C44A4EB090440EA0840FB
:100380000021002E61D024FA0EF400233460736043
:10039000BDE8F0878B4207D9002E54D0002186E8B3
:1003A00021000846BDE8F087B3FA83F1002940F048
:1003B0008E80AB4202D3824200F2FA80841A65EB4F
:1003C00003050120AC46002E3FD086E81010BDE8A2
:1003D000F08712B90127B7FBF2F7B7FA87FEBEF133
:1003E000000F34D1EB1B3A0C1FFA87FC0121B3FB41
:1003F000F2F8250C02FB183345EA03450CFB08F321
:10040000AB4207D9ED1908F1FF3002D2AB4200F23E
:10041000D1808046ED1AA3B2B5FBF2F002FB105575
:1004200043EA05440CFB00FCA44507D9E41900F19C
:10043000FF3302D2A44500F2B8801846A4EB0C04A6
:1004400040EA08409DE731463046BDE8F087CEF1EE
:10045000200405FA0EF307FA0EF720FA04F83A0C16
:1004600025FA04F448EA0308B4FBF2F14FEA184510
:1004700002FB11441FFA87FC45EA044501FB0CF31B
:10048000AB4200FA0EF409D9ED1901F1FF3080F00A
:100490008A80AB4240F2878002393D44EB1A1FFA52
:1004A00088F5B3FBF2F002FB103345EA034500FB8D
:1004B0000CF3AB4207D9ED1900F1FF386FD2AB4214
:1004C0006DD902383D44EB1A40EA01418FE7C1F192
:1004D000200722FA07F88B4005FA01F448EA0303E3
:1004E00020FA07FE4FEA134CFD404EEA040EB5FB1E
:1004F000FCF94FEA1E440CFB19551FFA83F844EA35
:10050000054509FB08F4AC4202FA01F200FA01FACF
:1005100008D9ED1809F1FF3043D2AC4241D9A9F115
:1005200002091D442D1B1FFA8EFEB5FBFCF00CFBCF
:1005300010554EEA054400FB08F8A04507D9E41819
:1005400000F1FF3529D2A04527D902381C4440EAE2
:100550000940A4EB0804A0FB02894C45C6464D4661
:1005600015D312D056B1BAEB0E0364EB050404FAAE
:1005700007F7CB401F43CC40376074600021BDE8D3
:10058000F0871846F8E69046E0E6C245EAD2B8EBB6
:10059000020E69EB03050138E4E72846D7E7404639
:1005A00091E78146BEE7014678E702383C4445E7DB
:1005B000084608E7A8F102083D442BE7704700BF52
:1005C00038B50E4A0E4B054618784FF47A73B3FBD4
:1005D000F0F31068B0FBF3F000F0CCF8044658B923
:1005E0000F2D09D8024629464FF0FF3000F06AF877
:1005F000044B20461D6038BD012038BD0800002096
:10060000000000200400002008B50B4B1A6842F4DB
:1006100000721A601A6842F480621A601A6842F422
:1006200080721A60032000F02FF80020FFF7C8FF47
:1006300002F080F8002008BD003C0240034A044B51
:1006400011681B780B441360704700BFAC0000209A
:1006500000000020014B1868704700BFAC0000206C
:1006600038B50446FFF7F6FF631C1CBF054B1B782B
:10067000054618BFE418FFF7EDFF401B8442FAD887
:1006800038BD00BF00000020C31E042B10B5044677
:1006900003D9A221094802F04BF8094AD36823F490
:1006A000E0631B041B0C43F0BF63240243F40033DC
:1006B00004F4E0641C43D46010BD00BFBE320008E7
:1006C00000ED00E00F2A70B504460E46154603D92A
:1006D000BA211A4802F02CF80F2E03D9BB21174873
:1006E00002F026F8164BD968C1F30221C1F10703C5
:1006F0000A1D042B28BF04230120062A8CBF0339BE
:10070000002100FA03F2013A8840324001388A4061
:100710000540002C42EA05024FEA0212AFBF04F185
:10072000604404F00F04074BD2B2A5BF04F5614446
:10073000D2B21A5584F8002370BD00BFBE32000843
:1007400000ED00E014ED00E010B5041E03DACE2148
:10075000064801F0EDFF6209012304F01F0403FACB
:1007600004F4034B43F8224010BD00BFBE32000822
:1007700000E100E00138B0F1807F0AD2064B074A61
:100780005860F02182F823100020072298601A6038
:1007900070470120704700BF10E000E000ED00E06E
:1007A000042810B5084C0AD020B140F2D9110748EE
:1007B00001F0BEFF236823F00403236010BD23680B
:1007C00043F00403F9E700BF10E000E0BE32000888
:1007D000704708B5FFF7FCFF08BD90F83530022BD5
:1007E00003D080234365012070470268052380F809
:1007F0003530136823F001031360002070470000B8
:10080000974B98422DE9F74F04460D461FD003F54C
:10081000806398421BD003F58063984217D003F59C
:100820008063984213D003F5806398420FD003F59C
:10083000806398420BD003F58063984207D003F59C
:100840008063984203D0C321864801F071FF2B6872
:100850009AB212B11B0C1B041BB1C421814801F0D8
:1008600067FF6B68032B17D9A3F11102012A13D973
:100870007D4923F400128A420ED001F580118B428B
:100880000AD0A1F570218A4206D0784A934203D05B
:10089000C521744801F04CFFAB68022B03D9C62177
:1008A000704801F045FFDFF8CC81002601232A685B
:1008B00003FA06F707EA02094F4540F0C0806A686C
:1008C00022F01002022A18D12A690D2A05D90F2A0E
:1008D00003D0D721634801F02BFFF10804EB81011D
:1008E00006F0070290000B6A0F22824023EA020EF4
:1008F0002A69824042EA0E020A626A6820684FEA68
:10090000460B4FF0030A0AFA0BFA02F003016FEAF2
:100910000A0A22F0100200EA0A0001FA0BF1013A79
:100920000143012A216017D8EA68032A03D9EA2182
:100930004C4801F0FDFEA168EA686B680AEA010113
:1009400002FA0BF20A43A2606268C3F3001322EAC0
:100950000702B34013436360E36868680AEA030A66
:10096000AB6803FA0BF343EA0A03E360C30066D5FE
:100970003F4A00230193516C41F480415164526C11
:1009800026F0030101F1804102F4804201F59C311F
:10099000019206F0030E019AD1F808C04FEA8E0EBC
:1009A0000F2202FA0EF22CEA020C2D4A94421BD0BE
:1009B00003F1804303F501339C4247D003F5806384
:1009C0009C4245D003F580639C4243D003F580638D
:1009D0009C4241D003F580639C423FD003F5806385
:1009E0009C4214BF0723062303FA0EF343EA0C03C9
:1009F0008B60D8F800206FEA0901C70354BF0A4092
:100A000049EA0202C8F80020D8F80420830354BF42
:100A10000A4049EA0202C8F80420D8F80820C702B0
:100A200054BF0A4049EA0202C8F80820D8F80C303E
:100A3000820254BF0B4049EA0303C8F80C30013668
:100A4000102E7FF433AF03B0BDE8F08F0123CBE766
:100A50000223C9E70323C7E70423C5E70523C3E748
:100A600000000240F93200080000111000002210BE
:100A700000380240003C014070B5054616460C4661
:100A800021B940F2AF11084801F052FE012E06D9FB
:100A90004FF4D871044801F04BFEAC6170BD002EDC
:100AA000FBD12404F9E700BFF9320008026853695A
:100AB00013F480630DD06FF48063536104230364E7
:100AC00020220023036380F83C3080F83D20012081
:100AD0007047184670472DE9F84304461746994673
:100AE000C1F307488EB22568B8F1010F0CBF6B69DE
:100AF000AB6936EA030314BF0120002008B9BDE842
:100B0000F8836B695A0512D52B6843F400732B6088
:100B10006FF480636B61042323642022002323632A
:100B200084F83C3084F83D200120BDE8F8837B1C2C
:100B3000D9D04FB900232022236384F83C3084F8B5
:100B40003D200320BDE8F883FFF784FDA0EB0900FA
:100B50008742C8D2EEE72DE9F843089E0446904646
:100B60001F46C1F307498DB22368B9F1010F0CBFCD
:100B70005B699B6935EA03030CBF012300234345EE
:100B800002D00020BDE8F8837B1CEDD05FB90023C4
:100B90002022236384F83C3084F83D20032084F82D
:100BA0003E30BDE8F883FFF755FD801B8742DBD25E
:100BB000EDE770B504460D46164623685B691B06D3
:100BC00001D5002070BD2046FFF770FFA8B96A1C50
:100BD000F3D065B9236C43F0200323642022002363
:100BE000236384F83C3084F83D20032070BDFFF778
:100BF00031FD801B8542E0D2ECE7012070BD70B56D
:100C000004460D4616462068436913F0400301D0A0
:100C1000002070BD4269D2060BD56FF01002426110
:100C20002022236484F83C302363012084F83D2093
:100C300070BD5DB9236C43F020032364202384F846
:100C40003D30002384F83C30032070BDFFF702FDE7
:100C5000801B8542D7D2EDE770B504460D46164697
:100C600023685B695B0701D5002070BD2046FFF754
:100C70001DFFA8B96A1CF3D065B9236C43F02003AB
:100C8000236420220023236384F83C3084F83D2031
:100C9000032070BDFFF7DEFC801B8542E0D2ECE74D
:100CA000012070BD70B50446002800F0C1800368C3
:100CB000604A93420CD002F58062934208D002F55C
:100CC0008062934204D04FF4B7715B4801F030FD6D
:100CD00063685A4A013B934204D940F26F11564867
:100CE00001F026FDA36833F4804304D04FF4B871BB
:100CF000514801F01DFDE36823F47F7323F00303E3
:100D000023B140F271114C4801F012FD236923F424
:100D10000043B3F5804F04D04FF4B971464801F059
:100D200007FD6369012B04D940F27311424801F0B9
:100D3000FFFCA36933F0FE0304D04FF4BA713E48C0
:100D400001F0F6FCE36933F0400304D040F2751182
:100D5000394801F0EDFC236A33F0800304D04FF4EE
:100D6000BB71354801F0E4FC94F83D3003F0FF021C
:100D700023B984F83C20204601F024FD2268304E3F
:100D8000304D242384F83D30136823F001031360B1
:100D900000F0A0FB63682268B0FBF5F5B34284BFA6
:100DA0004FF496716943556091BF691C4FF47A7591
:100DB000B1FBF5F10131B342116221D85B00B0FB08
:100DC000F3F0C0F30B03032B98BF0420216AE369FF
:100DD000D0610B431360E16823690B439360A16901
:100DE00063690B43D360136843F001031360002071
:100DF0002023206484F83D30206384F83E0070BDD9
:100E0000A16849B903EB4303B0FBF3F0C0F30B0354
:100E100063B140F40040D9E719214B43B0FBF3F034
:100E2000C0F30B0313B140F44040CFE70120CDE7FE
:100E3000012070BD00540040323300087F1A0600C4
:100E4000A086010040420F002DE9FF4104461F46E5
:100E50000D469046FFF7FEFB94F83D30202B0646EA
:100E600004D00225284604B0BDE8F0810090192383
:100E700001225D492046FFF76EFE0028F1D194F86B
:100E80003C30012BEDD0012384F83C3023681A68F4
:100E9000D2075EBF1A6842F001021A601A6822F493
:100EA00000621A60212284F83D20102284F83E203E
:100EB00000222264A2F580326785E262628D22857B
:100EC000E26AC4F82480042A04D0012A02D012F570
:100ED000803F04D11A6842F480721A6002E0226BEB
:100EE000122AF7D000960A9B00224FF001112046EB
:100EF000FFF731FE28BB23692268B3F5804F12D17A
:100F000005F0FE05156133460A9A38492046FFF779
:100F1000E2FD0546A0B9236803905A6903929B69D4
:100F20000393039B50E0EB1103F0060343F0F0033F
:100F300013612F490A9A33462046FFF7CCFD48B18A
:100F4000236C236C042B4FF0000307D184F83C3052
:100F5000012587E72368EDB21D61D4E784F83C30B2
:100F600003257FE732460A992046FFF722FE40B16B
:100F7000236C042BF4D12268136843F400731360CC
:100F8000E6E7616A2068228D4B1C63620B7803617F
:100F9000638D013B9BB263854769531E9BB27F07FC
:100FA00023850AD54BB18B1C63624B780361638D3B
:100FB000013B9BB2023A6385228532460A9920465C
:100FC000FFF74AFE0028D3D1238D002BCAD1216818
:100FD0000A6842F400720A60202284F83D2084F8F6
:100FE0003C3084F83E303DE7020010000200010072
:100FF000080001002DE9F043044689B098460D46EB
:101000009146109FFFF726FB94F83D30202B0646B3
:1010100004D00225284609B0BDE8F08300901923CA
:1010200001229C492046FFF796FD0028F1D194F853
:101030003C30012BEDD0012384F83C3023681A6842
:10104000D2075EBF1A6842F001021A601A6822F4E1
:1010500000621A60222284F83D20102284F83E208B
:1010600000222264A2F58032A4F82A80E262628D16
:101070002285E26A1968C4F8249041F48061042A48
:10108000196004D0012A02D012F5803F04D11A68F9
:1010900042F480721A6002E0226B112AF7D00096A7
:1010A0003B4600224FF001112046FFF754FD002877
:1010B0004AD12369B3F5804F236836D145F0010545
:1010C000EDB21D6133463A4673492046FFF703FDF2
:1010D0000546002837D1228D2368002A66D0012AD0
:1010E00077D11A6822F480621A6004955A690492D2
:1010F0009A690492049A1A6842F400721A60DFF83E
:10110000A081238D002B5BD0032B00F2CB80012B21
:101110007AD1324639462046FFF771FD002800F0AB
:101120009080236C202B16D13EE04FEAE51808F0A2
:10113000060848F0F0021A61584933463A462046FC
:10114000FFF7C9FC48B1236C236C042B4FF000035C
:1011500028D184F83C3001255CE723684E49EDB284
:101160001D613A4633462046FFF7B5FC024600288B
:10117000E9D12368079059690791996907910799FF
:10118000196841F480711960204600963B464FF083
:101190000111FFF7E0FC0028D6D1226848F0F103E6
:1011A00013618FE784F83C30032533E703955A69D0
:1011B00003929A690392039A1A6842F400721A60C1
:1011C000202384F83D30002384F83E3084F83C30FE
:1011D00020E7022A1A680DD122F480621A601A6888
:1011E00042F400621A6005955A6905929B6905935D
:1011F000059B84E742F480621A6006955A6906925C
:101200009B690693069B7AE7022B00963B464FF0BC
:1012100000024146204622D1FFF79DFC0028C3D1A1
:1012200023681A6842F400721A60626A1B69511CD2
:1012300061621370238D013B2385638D013B9BB25B
:101240006385636A5A1C6262226812691A70238D70
:10125000013B2385638D013B9BB2638551E7FFF71B
:101260007AFC024600289FD12368196821F4806126
:101270001960616A1B69481C60620B70238D0096BF
:10128000013B2385638D013B9BB2638541463B4611
:101290002046C1E702001000020001000800010022
:1012A00004000100324639462046FFF7A8FC00281A
:1012B0007FF437AF636A5A1C6262226812691A703F
:1012C000238D2268013B2385638D013B9BB263859F
:1012D00053695B077FF515AF636A591C6162B4E718
:1012E0002DE9F0410D46044610B90120BDE8F0811A
:1012F0000368013B0E2B04D94FF414716D4801F0C3
:1013000017FA0F2D04D940F251216A4801F010FA62
:10131000694B1A6802F00F0295423DD82268960781
:1013200042D42368D9076CD4634B1A6802F00F02C9
:101330009542C0F09C8023685A0700F1A180236881
:101340001B0718D5236933F480520CD023F40062B4
:10135000B2F5A05F07D0B3F5C05F04D04FF4307191
:10136000544801F0E5F9554A2169936823F4604334
:1013700043EAC103936000F0CDF8504B504A9B689C
:10138000C3F30313D35CD8404E4B18600020FFF723
:1013900017F90020BDE8F081EAB21A701B6803F06B
:1013A0000F039D42A1D1B9E7444B12F0040F1EBFB9
:1013B000996841F4E0519960100742BF9A6842F47D
:1013C00060429A60A36833F0800212D023F02002BA
:1013D000902A0ED023F04002A02A0AD023F0100257
:1013E000C02A06D0F02B04D04FF41D71314801F013
:1013F0009FF9324AA168936823F0F0030B4393608E
:101400008FE76368032B04D940F27B21294801F060
:101410008FF96268294B012A1FD11B6813F4003F22
:101420003FF463AF254EB36823F003031343B36067
:10143000FFF710F941F288380746B368626803F095
:101440000C03B3EB820F3FF46FAFFFF703F9C01B40
:101450004045F2D90320BDE8F081911E01291B68A7
:1014600002D813F0007FDBE713F0020FD8E7EAB2EF
:101470001A701B6803F00F039D427FF436AF5AE7E2
:10148000E36833F480520CD023F40062B2F5A05F1D
:1014900007D0B3F5C05F04D040F2B921054801F090
:1014A00047F9064AE168936823F4E0530B439360DD
:1014B00045E700BF6A330008003C024000380240A4
:1014C000C134000808000020014B1868704700BFB5
:1014D00008000020044B054A9B68C3F38223D35CB9
:1014E000034A1068D840704700380240D1340008E1
:1014F00008000020044B054A9B68C3F34233D35CC9
:10150000034A1068D840704700380240D1340008C0
:1015100008000020204908B58B6803F00C03082B55
:1015200007D00C2B20D01D4A1D48042B18BF104695
:1015300008BD4A684B68496813F4800314BF184813
:101540001648C1F3881118BF002302F03F02A1FB27
:101550000001FEF7ADFE104B5B68C3F3014301339E
:101560005B00B0FBF3F008BD4A684B68496813F4B0
:10157000800314BF0A480948C1F3881118BF00232B
:1015800002F03F02A1FB0001FEF792FE024B5B68F6
:10159000C3F30273E5E700BF003802400024F40003
:1015A00000127A0003680F2B2DE9F341044604D999
:1015B0004FF45161A34801F0BBF82368DE0718D44B
:1015C00023689D077BD42368190700F1D680236820
:1015D0005A0700F1FC80A369022B04D940F603618D
:1015E000984801F0A5F8A269002A40F06A8100201D
:1015F0002AE0636833F4803207D0B3F5A02F04D01B
:1016000040F615518F4801F093F88F4B9A6802F01D
:101610000C02042A10D09A6802F00C02082A02D1A7
:101620005B68580208D4884B9A6802F00C020C2AB6
:101630000DD15A6851020AD5834B1B689A03BFD556
:101640006368002BBCD1012002B0BDE8F081626864
:10165000B2F5803F11D11A6842F480321A60FEF769
:10166000F9FF794D06462B689B03A9D4FEF7F2FFDC
:10167000801B6428F7D90320E6E7734DB2F5A02F4D
:101680002B6807D143F480232B602B6843F480330D
:101690002B60E4E723F480332B602B6823F4802352
:1016A0002B60002ADBD1FEF7D5FF06462B689F038F
:1016B00086D5FEF7CFFF801B6428F7D9DBE7E36808
:1016C000012B04D940F64D515E4801F031F82369F1
:1016D0001F2B04D940F64E515A4801F029F85A4BB5
:1016E0009A6812F00C0F10D09A6802F00C02082AC7
:1016F00002D15B68580208D5534A936803F00C0383
:101700000C2B11D1536859020ED44F4B1A68920713
:1017100002D5E268012A96D11A68216922F0F802FE
:1017200042EAC1021A604EE7E268484BB2B10122B8
:101730001A60FEF78FFF444D06462B689F0707D5BA
:101740002B68226923F0F80343EAC2032B603AE7CF
:10175000FEF780FF801B0228EFD98CE71A60FEF7A6
:1017600079FF394D06462B6898077FF52CAFFEF7B9
:1017700071FF801B0228F6D97DE76369012B04D92C
:1017800040F694512F4800F0D3FF6269304B7AB194
:1017900001221A60FEF75EFF2B4D06466B6F9B071A
:1017A0003FF515AFFEF756FF801B0228F6D962E71A
:1017B0001A60FEF74FFF244D06466B6F9F077FF5BB
:1017C00006AFFEF747FF801B0228F6D953E7A36850
:1017D000012B06D9052B04D04FF45C61194800F0A9
:1017E000A7FF194B1A6C12F0805228D101921A6C83
:1017F00042F080521A641B6C03F080530193019BEA
:101800000126144D2B68D80526D5A3680E4D012B53
:1018100032D12B6F43F001032B67FEF71BFF0A4DFC
:10182000074641F288382B6F9A0744D5002E3FF4C3
:10183000D2AE054A136C23F080531364CBE6002626
:10184000DFE700BFA2330008003802400000474233
:10185000800E4742007000402B6843F480732B6079
:10186000FEF7F8FE07462B68D905CED4FEF7F2FE48
:10187000C01B0228F7D9FEE6052B04D12B6F43F0DD
:1018800004032B67C5E72A6F22F001022A672A6F3B
:1018900022F004022A67002BBFD1FEF7DBFE41F2E3
:1018A000883807462B6F9B07C0D5FEF7D3FEC01BB9
:1018B0004045F7D9DFE6FEF7CDFEC01B4045B2D963
:1018C000D9E6424EB36803F00C03082B3FF4BBAEDD
:1018D000022A3F4D6AD1E36933F4800304D040F615
:1018E0000C613C4800F024FF236A3F2B04D940F6EA
:1018F0000D61384800F01CFF636A323BB3F5BF7FCF
:1019000004D940F60E61334800F012FFA26A082A9B
:1019100004D84FF4AA73D340D80704D440F60F611B
:101920002C4800F005FFE36A023B0D2B04D94FF46D
:101930006161284800F0FCFE236B023B052B04D9B3
:1019400040F61161234800F0F3FE00232B60FEF700
:1019500081FE1E4E07463368990121D4226AE3694D
:101960001343626A43EA8213E26A43EA0263226B28
:1019700043EA0273A26A154C5208013A43EA024351
:10198000736001232B60FEF765FE054623689A010C
:101990003FF52DAEFEF75EFE401B0228F6D96AE643
:1019A000FEF758FEC01B0228D5D964E600232B6041
:1019B000FEF750FE044633689B017FF518AEFEF734
:1019C00049FE001B0228F6D955E600BF0038024048
:1019D00060004742A23300080368DA6822F490727C
:1019E000DA605A6922F001025A61202380F83A3005
:1019F0007047000042689E4B9A422DE9F04704462A
:101A000004D940F685119B4800F092FEE36833F458
:101A1000005304D040F68611964800F089FE2369F1
:101A200033F4806207D0B3F5C06F04D040F687115D
:101A3000904800F07DFE63694FF6F372134200D1C7
:101A400023B940F688118B4800F072FE2668E268E0
:101A500033692069E16923F4405313433361A36878
:101A6000F2680343606922F41642034322F00C0239
:101A70000B431343F3607369A26923F44073134368
:101A8000B1F5004F73617C4B7CD19E4203D003F5CE
:101A900080639E4244D1FFF72DFD192505FB00F31D
:101AA00060684FF064094000B3FBF0F3B3FBF9F357
:101AB0004FEA0318FFF71EFD636868435B00B0FB45
:101AC000F3F7FFF717FD636868435B00B0FBF3F3C0
:101AD000B3FBF9F309FB1373DB003233B3FBF9F308
:101AE0005B0003F4F877FFF705FD62686843520076
:101AF000B0FBF2FAFFF7FEFC636868435B00B0FBE3
:101B0000F3F3B3FBF9F309FB13A3DB003233B3FBAD
:101B1000F9F303F0070343443B44B360BDE8F087A7
:101B2000FFF7D8FC192505FB00F360684FF0640946
:101B30004000B3FBF0F3B3FBF9F34FEA0318FFF7F0
:101B4000C9FC636868435B00B0FBF3F7FFF7C2FCB6
:101B5000636868435B00B0FBF3F3B3FBF9F309FB85
:101B60001373DB003233B3FBF9F35B0003F4F87754
:101B7000FFF7B0FC626868435200B0FBF2FAFFF76F
:101B8000A9FCB9E79E4202D03C4B9E4240D1FFF7F0
:101B9000B1FC676819254FF0640905FB00F3BF002D
:101BA000B3FBF7F3B3FBF9F31F01FFF7A3FC636883
:101BB00068439B00B0FBF3F8FFF79CFC6368684345
:101BC0009B00B0FBF3F3B3FBF9F309FB13831B0199
:101BD0003233B3FBF9F303F0F008FFF78BFC6268D4
:101BE00068439200B0FBF2FAFFF784FC6368684335
:101BF0009B00B0FBF3F3B3FBF9F309FB13A31B0149
:101C00003233B3FBF9F303F00F0343EA080383E72E
:101C1000FFF760FC676819254FF0640905FB00F3C6
:101C2000BF00B3FBF7F3B3FBF9F31F01FFF752FC5F
:101C3000636868439B00B0FBF3F8FFF74BFC6368F5
:101C400068439B00B0FBF3F3B3FBF9F309FB138389
:101C50001B013233B3FBF9F303F0F008FFF73AFC52
:101C6000626868439200B0FBF2FAFFF733FCBDE70D
:101C7000A037A000DD33000800100140001401402F
:101C8000F8B504460E4617461D4621680B6836EA2D
:101C9000030301D10020F8BD6B1CF7D095B9236870
:101CA000DA6822F4D072DA605A6922F001025A61CD
:101CB000202384F8393084F83A30002384F838300F
:101CC0000320F8BDFEF7C6FCC01B8542DDD2E6E767
:101CD00010B50446002874D0816903683A4A002987
:101CE00057D0934210D0A2F54C4293420CD002F54B
:101CF0008062934208D002F54C42934204D04FF4E4
:101D00008071324800F014FDA36933F4407304D0AD
:101D100040F201112D4800F00BFDA36833F480530D
:101D200004D040F20711294800F002FDE36933F4C2
:101D3000004304D04FF48471244800F0F9FC94F877
:101D4000393003F0FF0223B984F83820204600F030
:101D500063FD2268242384F83930D36823F40053C8
:101D6000D3602046FFF746FE23681A6922F49042AA
:101D70001A615A6922F02A025A61DA6842F4005262
:101D8000DA6000202023E06384F8393084F83A30A8
:101D900010BD9342C1D00E4A9342BED002F580627C
:101DA0009342BAD002F580629342B6D002F58062C7
:101DB0009342B2D002F544429342AED040F20511B4
:101DC000A8E7012010BD00BF00100140DD3300086E
:101DD000004400402DE9F0411F4690F83930202B97
:101DE00004460D4690464FD100294AD0002A48D0DB
:101DF00090F83830012B47D0012380F83830002389
:101E0000C363212380F83930FEF724FCA4F8248032
:101E10000646A4F82680E38C9BB26BB93B4632465B
:101E200040212046FFF72CFFB0B9202384F8393039
:101E300084F83800BDE8F081E38C013B9BB2E38479
:101E4000A368B3F5805F32463B464FF080012046E1
:101E50000ED1FFF715FF10B10320BDE8F0812B88EC
:101E60002268C3F308035360236943B90235D2E7FC
:101E7000FFF706FF0028EFD123682A785A60013562
:101E8000C9E70120BDE8F0810220BDE8F0812DE91D
:101E9000F0411F4690F83A30202B04460D469046FC
:101EA00052D100294DD0002A4BD090F83830012B68
:101EB0004AD0012380F838300023C363222380F8FE
:101EC0003A30FEF7C7FBA4F82C800646A4F82E8013
:101ED000E08D80B230B9202384F83A3084F838009D
:101EE000BDE8F081E38D013B9BB2E385A368B3F5C8
:101EF000805F32463B464FF02001204612D1FFF76B
:101F0000BFFE10B10320BDE8F081236822695B6841
:101F100022B9C3F3080325F8023BD9E7DBB225F861
:101F2000013BD5E7FFF7ACFE0028EBD12368216920
:101F30005B686A1C11B92B701546C9E703F07F0373
:101F4000F9E70120BDE8F0810220BDE8F08190F8BA
:101F50003A30202B1CD1C9B1C2B190F83830012BD6
:101F600016D0C285828500232222C36380F83A20DE
:101F700002688162516980F8383041F00101516195
:101F8000D16841F49071D1601846704701207047C4
:101F900002207047704790F83A30222B10B532D1AA
:101FA000836801690268B3F5805F836A1FD1526854
:101FB000C9B9C2F3080223F8022B8362C48D013C25
:101FC000A4B2C4856CB90368DA6822F49072DA604E
:101FD0005A6922F001025A61202380F83A3000F059
:101FE00083FB002010BDD2B223F8012BE5E721B915
:101FF000591C526881621A70E0E75268591C81626C
:1020000002F07F02F7E7022010BD704703681A68EC
:10201000D96870B5160704465D6907D196065AD58A
:102020008D0658D5BDE87040FFF7B5BF15F0010526
:1020300002D111F4907F4ED0D30705D5CE0542BF13
:10204000E36B43F00103E363500704D51DB1E36B79
:1020500043F00203E363930704D51DB1E36B43F040
:102060000403E363160704D51DB1E36B43F00803D3
:10207000E363E36B002B66D0950604D5880602D592
:102080002046FFF788FF23685D69E26B1107204651
:1020900002D415F040051AD0FFF79EFC23685A6958
:1020A000520610D55A69606B22F040025A6150B155
:1020B000254B0365FEF791FB002844D0606BBDE81B
:1020C0007040036D18472046FFF79FFF70BDFFF774
:1020D0009CFFE56370BD160627D50D0625D594F83F
:1020E0003920212A2FD1A268B2F5805F226A17D148
:1020F0001188C1F308015960216979B9023222625D
:10210000E28C013A92B2E284EAB9DA6822F0800203
:10211000DA60DA6842F04002DA6070BD0132EEE760
:10212000511C216212785A60EAE750060BD54A0624
:1021300009D5DA6822F04002DA60202384F83930C9
:102140002046FFF727FF70BD4D21000808B5806BC2
:102150000023C385C384FFF758FF08BD30B585B0A1
:1021600004AA0B4C02F8080D4FF6FF7500950123E9
:102170003C212046FEF768FE0095012303AA3C217E
:102180002046FEF737FF9DF80C0005B030BD00BFBC
:10219000B000002038B505460130C0B2FFF7DEFFC1
:1021A00004462846FFF7DAFF40EA042000B238BDB3
:1021B0000FB480B582B000AF07F11003ADF5007D1C
:1021C00053F8042B7B604FF40071684600F064FC08
:1021D00040F2FF12B0F5007F28BF104682B24FF6E2
:1021E000FF7369460448FFF7F5FD0837BD46BDE8B3
:1021F000804004B0704700BF8401002038B528201B
:10220000FFF7C8FF134D144C28802A20FFF7C2FFA8
:1022100020802C20FFF7BEFFB5F900100F4B0029DE
:10222000188006DA11F5004F1ABF4B4219B247F673
:10223000FF71B4F90030002B06DA13F5004F1ABF16
:102240005A4213B247F6FF738B42054AB8BF0B469A
:10225000138038BD900000209200002094000020E0
:102260008E00002030B595B0294B002100911A6CEA
:1022700042F080521A641B6C264A03F0805300938C
:10228000009B0191136823F4404343F4804313609F
:10229000136803F440430193019B012307934FF418
:1022A000803308934FF480030E93082302240F9386
:1022B00004254FF4A87307A80D9410931195129458
:1022C0001394FFF76FF900B1FEE70F230293049018
:1022D0004FF480530690214602A803940593FEF71D
:1022E000FFFF044600B1FEE7FFF7EEF84FF47A7304
:1022F000B0FBF3F0FEF73EFA2846FEF751FA22460D
:1023000021464FF0FF30FEF7DDF915B030BD00BFBC
:1023100000380240007000402DE9F0478CB00024E6
:10232000FEF772F9FFF79EFFA34B03941A6BA348C5
:1023300042F004021A631A6B02F004020392039A39
:1023400004941A6B42F080021A631A6B02F0800246
:102350000492049A05941A6B42F001021A631A6BF4
:1023600002F001020592059A06941A6B42F00202ED
:102370001A631B6B03F00203224606932021069B7F
:10238000FEF77AFB4FF40053079307A98C4B8D4857
:10239000089309940126FEF733FA20238748079310
:1023A00007A9089609940A94FEF72AFA8648874BEB
:1023B00084604FF4E13580E828000C25C460046196
:1023C00045618461C461FFF783FC00B1FEE7804B87
:1023D000804A8149986083E80600D8604FF48042C3
:1023E00058619861D861186218461A61FEF75AFC64
:1023F00000B1FEE7794C7A4BA0604FF41658E060CC
:102400002061A061E061204684E808016561FFF772
:102410005FFC00B1FEE7734B734A9860D8601861A7
:102420009861D861184683E804015D61FFF750FCAC
:1024300000B1FEE7324620466C496D4D6D4EFFF708
:1024400086FD2C462B78032BFDD8DFE803F0022510
:1024500057760F20FFF782FE492817D1664B5C485C
:102460001B88ADF81C304FF6FF73009307AA0223B8
:102470003C21FEF7E9FC10B903232370E2E75F4833
:10248000FFF796FE3220FEF7EBF8DBE75C48FFF73C
:102490008FFE4FF47A70F6E7FFF7B0FE594B5A49BA
:1024A000B3F90000594A47F230539842584B19DDAE
:1024B0004FF0020E84F800E0DFF860E1B1F800C0F0
:1024C000AEF800C0DFF858E1B2F800C0AEF800C0C6
:1024D000DFF850E1B3F800C0AEF800C0DFF838E133
:1024E000AEF80000B3F90030B2F90020B1F90010E5
:1024F00000904848FFF75CFE1920C4E73046FFF71C
:1025000057FEFFF77BFE3F4BB3F9003047F22F52E7
:102510009342B1DD404AB2F90010994292DA3A4949
:10252000138008883D490880384908883C4908805C
:10253000374908883B49088084E73B48DFF8A48096
:10254000DFF8E890DFF8E8A0FFF732FE0026344617
:102550004FF4FA63012207A94046FFF798FC0028D0
:1025600040F0A5809DF81C50082C00F29B80DFE80D
:1025700004F005090D1115191D627700242D19D1DC
:10258000012485E0472D15D1022481E0502D11D181
:1025900003247DE0472D0DD1042479E04C2D09D191
:1025A000052475E04C2D05D1062471E02C2D4FF04B
:1025B000000648D00024CBE700380240000002406B
:1025C0000000211000080240840100200044004067
:1025D000B0000020A086010000540040040100204B
:1025E0000010014044010020004C00408C000020FD
:1025F0009E00002086340008BC32000833340008F6
:10260000523400088E00002090000020920000202C
:10261000940000206E3400089600002098000020EE
:102620009A0000209C00002090340008BE3400086E
:10263000503400080025A5F13003DAB2082A04D886
:102640000A2202FB0636072422E02C2D03D124485F
:10265000FFF7AEFDF7E72E2DACD1002710E00025E7
:1026600031462048FFF7A4FDA5F13003DAB2082A6D
:1026700008D8052F04D00A22013702FB0636FFB224
:10268000082405E02C2D95D10A23052F05D1092416
:1026900029464846FFF78CFD5AE701375E43FFB2F3
:1026A000F3E7002529465046FFF782FD82E7082C14
:1026B000F7D801A353F824F0B5250008B525000884
:1026C000B5250008B5250008B5250008B525000882
:1026D000DD260008352600085F260008002669E789
:1026E000A2340008B134000802680C4B9A4210B5BD
:1026F00012D10B4C0B482178FFF75AFD08220A49EA
:102700000A484FF47A73FFF765FB21460122074818
:10271000BDE81040FFF71BBC10BD00BF001001401A
:102720008C000020163400082A3400080401002020
:102730007047000013B5224B002400945A6C42F4F9
:1027400080425A645A6C02F480420092009A0194CA
:102750001A6C42F080521A641B6C03F08053019390
:102760000720019BFDF790FF224621466FF00B00EA
:10277000FDF7A8FF224621466FF00A00FDF7A2FFF1
:10278000224621466FF00900FDF79CFF22462146B4
:102790006FF00400FDF796FF224621466FF003001C
:1027A000FDF790FF224621466FF00100FDF78AFFFA
:1027B000224621464FF0FF30FDF784FF02B010BDE6
:1027C000003802407FB50268104B9A421BD14FF48B
:1027D0004073019312230293012303930323049371
:1027E00004230DEB03010A480593FEF709F80023C3
:1027F0000093084B1A6C42F400121A641B6C03F429
:1028000000130093009B07B05DF804FB00540040E8
:102810000004024000380240F0B50368364A934293
:1028200089B024D100230093344B35481A6C42F40C
:1028300000221A641B6C03F4002302240093012776
:102840000326082503A9009B039404940597069684
:102850000795FDF7D5FF4FF480632A48039304944E
:1028600005970696079503A9FDF7CAFF25E0264AB6
:10287000934224D10024214B0194596C204841F00B
:10288000100159645B6C03F010030193019B4FF43A
:10289000C063039302230493012305930323069348
:1028A00003A907230793FDF7ABFF25202246214606
:1028B000FDF708FF2520FDF747FF09B0F0BD134ADB
:1028C0009342FAD1002302930C4B0D481A6C42F448
:1028D00000321A641B6C03F400330293029B0C2336
:1028E00003930223049301230593032306930723F1
:1028F000079303A9B8E700BF004C0040003802402E
:102900000000024000080240001001400044004066
:102910007047FEE7FEE7FEE7FEE770477047704747
:1029200008B5FDF78BFEBDE80840FDF752BF00007B
:102930000148FFF76BBB00BF04010020044B19687E
:10294000024609B903491960186802441A607047C1
:10295000A0000020C80100200F49D1F8883043F4BE
:102960007003C1F888300D4B1A68002042F0010254
:102970001A6098601A6822F0847222F480321A6019
:10298000074A5A601A6822F480221A60D8604FF011
:1029900000638B60704700BF00ED00E0003802402C
:1029A00010300024DFF834D0002103E00C4B5B58DA
:1029B000435004310B480C4B42189A42F6D30B4A51
:1029C00002E0002342F8043B094B9A42F9D3FFF797
:1029D000C3FF00F011F8FFF79FFC704700000220D2
:1029E0001C3500080000002070000020700000204E
:1029F000C8010020FEE7000070B50D4E0D4CA41B71
:102A0000A4100025A54209D10B4E0C4C00F04AFC45
:102A1000A41BA4100025A54205D170BD56F8253091
:102A200098470135EEE756F8253098470135F2E72B
:102A3000143500081435000814350008183500084E
:102A400030B5141E05469BB0184605DA8B232B6063
:102A50004FF0FF301BB030BD4FF40273ADF80C30B7
:102A600014BF04F1FF332346029305934FF6FF731F
:102A700000910491ADF80E3002461E9B694628462F
:102A800000F020F9431CBCBF8B232B60002CE1D04D
:102A9000009B00221A70DDE707B5009313460A4633
:102AA000014603480068FFF7CBFF03B05DF804FB65
:102AB0000C00002038B50546002945D051F8043CEB
:102AC0000C1F002BB8BFE41800F0BBFB1F4A1368B3
:102AD000104633B9636014602846BDE8384000F002
:102AE000B1BBA3420CD921686218934204BF1A6893
:102AF0005B68636004BF521822600460ECE7134611
:102B00005A680AB1A242FAD919685818A0420BD1E2
:102B100020680144581882421960DDD1106852685B
:102B20005A6001441960D7E702D90C232B60D3E720
:102B3000206821188A4204BF11685268626004BF8D
:102B4000091821605C60C7E738BD00BFA400002001
:102B500070B5CD1C25F0030508350C2D38BF0C25AC
:102B6000002D064601DBA94203D90C233360002067
:102B700070BD00F066FB234A1468214691B9224CCF
:102B800023681BB9304600F027FB206029463046F9
:102B900000F022FB431C26D10C233360304600F0AA
:102BA00051FBE4E70B685B1B1AD40B2B0FD90B60AE
:102BB000CD50CC18304600F045FB04F10B00231D2E
:102BC00020F00700C31A1BD05A42E25070BD8C425D
:102BD0000DBF63684B686360136018BF0C46E9E77C
:102BE0000C464968CAE7C41C24F00304A04205D07F
:102BF000211A304600F0F0FA0130CDD02560D9E737
:102C000070BD00BFA4000020A80000202DE9F047FF
:102C10008E689E4282460C469146984635D88A89EF
:102C200012F4906F31D0256809696F1A6569022323
:102C300005EB450595FBF3F508F101033B449D4287
:102C400038BF1D46530531D52946FFF781FF06469B
:102C500050B90C23CAF80030A38943F04003A38184
:102C60004FF0FF30BDE8F0873A46216900F0C4FA22
:102C7000A38923F4906343F08003A38126616561F7
:102C80003E44ED1B2660A5604646464528BF4646A5
:102C900032464946206800F0BAFAA3689B1BA3603D
:102CA00023681E4426600020BDE8F0872A4600F015
:102CB000CAFA06460028E1D121695046FFF7FAFE1C
:102CC000C7E700002DE9F04F9DB0804603938B8944
:102CD0001C060D4616460FD50B696BB94021FFF750
:102CE00037FF2860286128B90C23C8F800304FF05E
:102CF000FF30C5E040236B610023099320238DF84A
:102D0000293030238DF82A304FF0010B37463C46EE
:102D100014F8013B002B3CD1B7EB060A0BD053460D
:102D2000324629464046FFF771FF013000F0A3808C
:102D3000099B534409933B78002B00F09C800023AF
:102D40004FF0FF3204930793059206938DF85330AA
:102D50001A93052221785048FDF75AFA671C049B04
:102D6000D8B9D90644BF20228DF853201A0744BF92
:102D70002B228DF8532022782A2A16D0079A002178
:102D80000A20274601343B78303B092B51D9C9B181
:102D900011E0252BC0D02746B9E73F4A801A0BFA2D
:102DA00000F0184304903C46D3E7039A111D1268C3
:102DB0000391002A01DB079204E0524243F0020330
:102DC000079204933B782E2B0ED17B782A2B07F1A8
:102DD000010132D1039B1A1D1B680392002BB8BF5F
:102DE0004FF0FF33023705932C4C397803222046ED
:102DF000FDF70EFA38B14023001B03FA00F0049BE4
:102E0000034304930137397825488DF828100622AA
:102E10007E1CFDF7FDF9002835D0224BFBB9039B42
:102E2000073323F0070308330393099B4B440993AB
:102E30006CE700FB02320121A3E70023059318464B
:102E40000A240F4601313A78303A092A03D9002B77
:102E5000CAD00590C8E704FB00200123F1E703ABCB
:102E600000932A46104B04A94046AFF30080B0F10E
:102E7000FF3F8146D9D1AB895B063FF538AF099852
:102E80001DB0BDE8F08F03AB00932A46064B04A9A2
:102E9000404600F081F8EAE7D9340008DF34000842
:102EA000E3340008000000000D2C00082DE9F04775
:102EB00091461F468A680B69DDF820809342B8BFAF
:102EC0001346C9F8003091F8432006460C4612B16B
:102ED0000133C9F800302368990642BFD9F80030A1
:102EE0000233C9F80030256815F0060507D104F152
:102EF000190AE368D9F800209B1A9D4229DB94F84F
:102F000043302268003318BF012392062ED404F107
:102F1000430239463046C047013021D02368E56876
:102F2000D9F8002003F00603042B08BFAD1AA368EC
:102F300022690CBF25EAE57500259342C4BF9B1AA0
:102F4000ED184FF000091A344D451BD10020BDE8A3
:102F5000F0870123524639463046C047013003D13D
:102F60004FF0FF30BDE8F0870135C2E7E1185A1C89
:102F7000302081F84300224494F8451082F8431031
:102F80000233C4E70123224639463046C0470130A8
:102F9000E6D009F10109D7E72DE9F04317460A7E8B
:102FA00085B06E2A984606460C460C9B01F1430EEE
:102FB00000F0BC801AD8632A2ED00AD8002A00F06C
:102FC000C880582A00F08A8004F1420584F8422023
:102FD0002AE0642A01D0692AF6D121681A6811F022
:102FE000800F23D0111D1960136827E0732A00F0A9
:102FF000B48008D86F2A2AD0702AE5D10A6842F036
:1030000020020A6003E0752A21D0782ADCD17822D8
:1030100084F845206E4964E01A6801F14205111DEB
:103020001960136884F842300123A3E011F0400FC7
:1030300002F104011960D7D0B2F90030002B03DA95
:103040002D225B4284F8432062490A2217E020685F
:10305000196810F0800F03D0081D18600B6806E097
:1030600010F0400F01F104001860F7D00B885949A7
:103070006F2A14BF0A220822002084F843006568E2
:10308000A560002DC0F29C80206820F00400206024
:10309000002B3FD1002D40F095807546082A0BD1BA
:1030A0002368DA0708D5236962689A42DEBF3023B5
:1030B00005F8013C05F1FF35AEEB05032361CDF8C2
:1030C00000803B4603AA21463046FFF7EFFE013061
:1030D00055D14FF0FF3005B0BDE8F08381F84520B1
:1030E0003C492268186812F0800F00F104051D6049
:1030F00001D0036802E05506FBD50388D00744BF22
:1031000042F0200222601BB9226822F020022260D5
:103110001022B1E77546B3FBF2F002FB1033CB5C33
:1031200005F8013D03460028F5D1B7E708681A689D
:10313000496910F0800F04D0101D186013681960E1
:1031400007E010F0400F02F1040018601368F6D099
:103150001980002323617546B1E71A68111D1960B3
:103160001568626800212846FDF752F808B1401B37
:10317000606063682361002384F843309FE723691C
:103180002A4639463046C0470130A2D023689B0703
:1031900007D5002504F11909E368039A9B1A9D429B
:1031A00005DBE068039B9842B8BF184693E701230C
:1031B0004A4639463046C04701308AD00135EBE7F0
:1031C000002BA7D10B7884F8423004F1420565E763
:1031D000FB340008EA34000838B5064C00230546E5
:1031E00008462360FFF7AAFB431C02D1236803B102
:1031F0002B6038BDC401002010B5431E0A44914223
:1032000000D110BD11F8014B03F8014FF7E78842D8
:1032100010B501EB020303D8421E99420CD110BD38
:103220009842F9D28118D21AD34200D110BD13F8B6
:10323000014D01F8014DF7E711F8014B02F8014F7C
:10324000EBE770477047F8B5074614460E4621B9BC
:103250001146BDE8F840FFF77BBC22B9FFF72AFC16
:1032600025462846F8BD00F014F884420FD92146BF
:103270003846FFF76DFC05460028F2D0314622465D
:10328000FFF7BAFF31463846FFF714FCE9E7354649
:10329000E7E751F8040C0028A0F10400BCBF0B586C
:1032A000C0187047F8B500BFF8BC08BC9E46704710
:0C32B000F8B500BFF8BC08BC9E46704793
:1032BC0020472E2E2F447269766572732F53544D0E
:1032CC003332463478785F48414C5F447269766596
:1032DC00722F5372632F73746D3332663478785F48
:1032EC0068616C5F636F727465782E63002E2E2F8D
:1032FC00447269766572732F53544D333246347869
:10330C00785F48414C5F4472697665722F537263E3
:10331C002F73746D3332663478785F68616C5F67D5
:10332C0070696F2E63002E2E2F447269766572734E
:10333C002F53544D3332463478785F48414C5F44B8
:10334C0072697665722F5372632F73746D333266A4
:10335C003478785F68616C5F6932632E63002E2E5F
:10336C002F447269766572732F53544D3332463441
:10337C0078785F48414C5F4472697665722F53725E
:10338C00632F73746D3332663478785F68616C5F69
:10339C007263632E63002E2E2F44726976657273EE
:1033AC002F53544D3332463478785F48414C5F4448
:1033BC0072697665722F5372632F73746D33326634
:1033CC003478785F68616C5F7263635F65782E63D5
:1033DC00002E2E2F447269766572732F53544D3321
:1033EC0032463478785F48414C5F44726976657236
:1033FC002F5372632F73746D3332663478785F6831
:10340C00616C5F756172742E63004461746120722B
:10341C00656365697665643A2025630D0A00416829
:10342C006F6A6B790D0A004572726F72207768694A
:10343C006C6520636F6E6669677572696E67206173
:10344C0063632E0D0A00416363206973206E6F74F1
:10345C0020636F6E6E6563746564207965742E0DE0
:10346C000A00416363656C3A202536642025366476
:10347C0020253664202536640A004372617368691E
:10348C006E670A0053656E64696E6720475053205F
:10349C00646174610A004E6F204750532073696752
:1034AC006E616C0A002D2D3E204C41543A2025644F
:1034BC000A00256300000000000000000001020368
:1034CC0004060708090000000001020304232D3044
:1034DC002B2000686C4C0065666745464700303110
:1034EC00323334353637383941424344454600305F
:1034FC00313233343536373839616263646566008E
:08350C00D4CDFF7F0100000097
:04351400F5010008B5
:04351800D1010008D5
:10351C0001000000100000000024F4001000002046
:10352C00000000000000000000000000000000008F
:10353C00000000000000000000000000000000007F
:10354C00000000000000000000000000000000006F
:10355C00000000000000000000000000000000005F
:10356C00000000000000000000000000000000004F
:10357C00000000000000000000000000000000003F
:04000005080029A521
:00000001FF
